S010000073646B5F323032362E73726563A9
S11300000C9434000C94F1010C9451000C945100A4
S11300100C9451000C9451000C9451000C94510018
S11300200C9451000C9451000C9451000C94A903AD
S11300300C9451000C9451000C9451000C945100F8
S11300400C948C030C9451000C94FC030C945100FC
S11300500C9451000C947A000C9451000C9493006D
S11300600C9451000C94510011241FBECFEFD8E022
S1130070DEBFCDBF11E0A0E0B1E0E4EAFEE002C0E3
S113008005900D92A83DB107D9F721E0A8EDB1E0A4
S113009001C01D92AE3DB207E1F70E941F030C940C
S11300A050070C940000ECE7F0E08081887F8083A7
S11300B0EAE7F0E080818064808380917A0084FFA5
S11300C0FCCFEAE7F0E08081806180838091780052
S11300D0909179000895ECE7F0E080E480838081DA
S11300E0887F8083EAE7F0E080E88083808187600E
S11300F0808308951F920F920FB60F9211248F934D
S1130100EF93FF938091780080917900EAE7F0E023
S1130110808180648083FF91EF918F910F900FBE57
S11301200F901F9018951F920F920FB60F921124E3
S11301308F9381E08093D8018F910F900FBE0F9021
S11301401F9018951092DB011092DA011092D901D8
S113015085B18E7F85B908958091DB0181111DC021
S11301608091D901811119C081E08093DB018AE07B
S11301708093DA0185B1816085B982E091E00E94C3
S113018037040E94FF0261E081E00E94F50281E1F0
S113019091E00E9409030E94E103089585B18E7FD6
S11301A085B90E94EB038091DB018130C1F58CE1BC
S11301B091E00E9437040E94FF0261E081E00E9406
S11301C0F50288E291E00E94090362E081E00E9466
S11301D0F5028EE291E00E9409032FEF87EA91E68F
S11301E0215080409040E1F700C0000081E08093FE
S11301F0D90183E08093DB010E94FF0261E081E08A
S11302000E94F5028AE391E00E94090362E081E022
S11302100E94F50284E491E00E94090335C0823013
S113022099F581E591E00E9437040E94FF0261E0A4
S113023081E00E94F5028FE591E00E94090362E0EB
S113024081E00E94F50288E691E00E9409032FEF05
S11302508BE792E9215080409040E1F700C0000014
S11302601092DB010E94FF0261E081E00E94F5022E
S11302708AE391E00E94090362E081E00E94F502B2
S113028084E791E00E9409031092DA0108950E9424
S1130290530008950F931F93CF93DF9300D000D0A2
S11302A0CDB7DEB70E9447019C019091DB019130EC
S11302B091F030F0923009F473C09330C1F172C000
S11302C02C32314008F06EC08091D90181116AC08E
S11302D00E94AC0067C08091DA01882329F162E0B2
S11302E081E00E94F5028AE791E00E94090380916F
S11302F0DA011F928F9383E891E09F938F938E018D
S11303000F5F1F4F1F930F930E946604C8010E9442
S1130310090387E891E00E9409030F900F900F9062
S11303200F900F900F903EC00E94CE003BC0253F1F
S11303303140C0F11092D9011092DB018AE891E0BA
S11303400E9437040E94FF0261E081E00E94F502EE
S113035086E991E00E94090362E081E00E94F502CF
S113036081EA91E00E9409032FEF87EA91E6215088
S113037080409040E1F700C000000E94FF0261E06D
S113038081E00E94F5028AE391E00E94090362E0A1
S113039081E00E94F50284E791E00E94090302C013
S11303A00E94CE000F900F900F900F90DF91CF918D
S11303B01F910F9108958091DB01813049F4809160
S11303C0DA01882329F08091DA0181508093DA01DF
S11303D008958091DB01813019F482E08093DB0180
S11303E008951F920F920FB60F9211242F933F93EB
S11303F04F935F936F937F938F939F93AF93BF9329
S1130400EF93FF930E94E901FF91EF91BF91AF91A8
S11304109F918F917F916F915F914F913F912F9118
S11304200F900FBE0F901F901895E9E6F0E08081C1
S1130430826080838DB381608DBB08951092B90072
S113044084E18093B80084E08093BC00089584EA3A
S11304508093BC008091BC008823E4F7089584E96C
S11304608093BC008FE99FE00197F1F700C0000082
S113047008958093BB0084EC8093BC008091BC0001
S11304808823E4F708950E94270280E70E94390236
S11304908FEF0E9439022FEF89EF90E021508040C6
S11304A09040E1F700C0000084E30E94390280E339
S11304B00E9439028FE39CE90197F1F700C0000024
S11304C084E30E94390280E30E9439028FE99FE0AD
S11304D00197F1F700C0000084E30E94390280E331
S11304E00E9439028FE99FE00197F1F700C00000F4
S11304F084E20E94390280E20E9439028FE99FE07F
S11305000197F1F700C000000E942F020895CF93D5
S1130510DF93C82F0E94270280E70E943902DC2F54
S1130520D07F8D2F8C600E9439028D2F88600E94AD
S1130530390280E1C89FE00111248C2F8C600E9455
S113054039028C2F0E9439020E942F028FE39FE10F
S11305500197F1F700C000008FE39FE10197F1F7E5
S113056000C00000DF91CF9108950E941E020E94F6
S113057043028CE20E9487028CE00E94870286E09C
S11305800E94870280E80E9487020895CF93DF9338
S1130590C82F0E94270280E70E943902DC2FD07FF7
S11305A08D2F8D600E9439028D2F89600E9439023F
S11305B080E1C89FE00111248C2F8D600E943902D4
S11305C08C2F89600E9439020E942F028FE39FE1E1
S11305D00197F1F700C000008FE39FE10197F1F765
S11305E000C00000DF91CF910895E62FF0E0E150C4
S11305F0FF4F9081890F81580E948702089581E0FE
S11306000E9487028FE39FE10197F1F700C0000089
S113061008950F931F93CF93DF938C01C0E0D0E034
S113062003C00E94C6022196F801EC0FFD1F8081D1
S11306308111F7CFDF91CF911F910F9108950E94FF
S113064076030E9415020E946B000E94B5028FEC93
S113065090E00E9450040E94CD030E94FF0261E0DA
S113066081E00E94F5028FEA91E00E94090362E0B2
S113067081E00E94F50280EC91E00E9409032FEFD3
S113068087EA91E6215080409040E1F700C00000E5
S11306900E94A20089EC91E00E9437042FEF81EEC2
S11306A094E0215080409040E1F700C0000078942D
S11306B00E94FF0261E081E00E94F5028AE391E07A
S11306C00E94090362E081E00E94F5028EEC91E051
S11306D00E9409030E944A012FEF81EE94E0215009
S11306E080409040E1F700C00000F4CF84B1816005
S11306F084B985B18E7F85B984B1806284B987B1AC
S11307008E7F87B988B18E7F88B98AB18B7F8AB989
S11307108BB184608BB908951F920F920FB60F921C
S113072011248F939F938091DC018F5F8093DC0170
S11307308091DC018D3730F095B180E2892785B94D
S11307401092DC019F918F910F900FBE0F901F901C
S113075018951F920F920FB60F9211242F933F9367
S11307604F935F936F937F938F939F93AF93BF93B5
S1130770EF93FF930E94DB01FF91EF91BF91AF9143
S11307809F918F917F916F915F914F913F912F91A5
S11307900F900FBE0F901F901895E1E8F0E0808154
S11307A08860808383E294EF90938900809388002B
S11307B0808184608083EFE6F0E0808182608083C2
S11307C008951092850010928400E1E8F0E08081A1
S11307D0846080830895E1E8F0E08081887F8083ED
S11307E0109285001092840008959091C00095FFA6
S11307F0FCCF8093C60008951F920F920FB60F92FC
S113080011242F933F934F935F936F937F938F9311
S11308109F93AF93BF93EF93FF938091C600809310
S1130820DD018DE20E94F5038EE30E94F5038091C1
S1130830DD010E94F5038091DD01813321F485B14E
S1130840806285B903C085B18F7D85B9FF91EF9131
S1130850BF91AF919F918F917F916F915F914F91D4
S11308603F912F910F900FBE0F901F9018950F93EB
S11308701F93CF93DF938C01C0E0D0E009C0F8014F
S1130880EC0FFD1F8081882331F021960E94F5032F
S1130890C034D105A4F3DF91CF911F910F91089536
S11308A0E2ECF0E020812F73208322E02093C0004B
S11308B09093C5008093C40086E08083E1ECF0E06F
S11308C088E180838081806880830895AEE0B0E011
S11308D0ECE6F4E00C9427070D891E8986E08C83EE
S11308E01A8309838FEF9FE79E838D83AE01475E52
S11308F05F4F6F89788DCE0101960E948804EF8145
S1130900F885E00FF11F10822E96E4E00C94430763
S1130910ABE0B0E0EEE8F4E00C9419076C017B0165
S11309208A01FC0117821682838181FFCCC1CE012A
S113093001963C01F6019381F70193FD859193FFA4
S113094081917F01882309F4BAC1853239F493FD7A
S1130950859193FF81917F01853229F4B60190E05E
S11309600E947F06E7CF912C212C312CFFE1F31557
S1130970D8F08B3279F038F4803279F08332A1F4F4
S1130980232D20611DC08D3261F0803369F4232D45
S1130990216016C0832D8260382EE32DE4603E2E44
S11309A02AC0F32DF8601DC037FC2DC020ED280FA0
S11309B02A3040F08E32B9F436FC81C1232D2064F4
S11309C0322E19C036FE06C08AE0989E200D1124EE
S11309D0922E11C0EAE02E9E200D1124222EF32D1A
S11309E0F0623F2E08C08C3621F4832D8068382EA7
S11309F002C0883641F4F70193FD859193FF8191FC
S1130A007F018111B3CF982F9F7D9554933028F4A3
S1130A100C5F1F4F9FE399830DC0833631F08337FA
S1130A2071F0833509F059C021C0F80180818983B0
S1130A300E5F1F4F88248394912C530113C0280107
S1130A40F2E04F0E511CF801A080B18036FE03C0C5
S1130A50692D70E002C06FEF7FEFC5010E9474063C
S1130A604C018201F32DFF773F2E16C0280122E0AE
S1130A70420E511CF801A080B18036FE03C0692DDE
S1130A8070E002C06FEF7FEFC5010E9469064C0160
S1130A90F32DF0683F2E820133FC1BC0822D90E0C1
S1130AA088169906B0F4B60180E290E00E947F06B1
S1130AB02A94F4CFF50137FC859137FE81915F01CB
S1130AC0B60190E00E947F0621102A9421E0821A48
S1130AD091088114910471F7E8C0843611F08936C5
S1130AE041F5F80137FE07C06081718182819381ED
S1130AF00C5F1F4F08C060817181072E000C880BAA
S1130B00990B0E5F1F4FF32DFF763F2E97FF09C001
S1130B1090958095709561957F4F8F4F9F4FF068AA
S1130B203F2E2AE030E0A3010E94BB06882E8618DF
S1130B3045C0853731F4232D2F7EB22E2AE030E0D4
S1130B4025C0932D997FB92E8F36C1F018F48835BE
S1130B5079F0B5C0803719F0883721F0B0C0E92F9B
S1130B60E061BE2EB4FE0DC0FB2DF460BF2E09C0A3
S1130B7034FE0AC0292F2660B22E06C028E030E0D9
S1130B8005C020E130E002C020E132E0F801B7FE08
S1130B9007C060817181828193810C5F1F4F06C001
S1130BA06081718180E090E00E5F1F4FA3010E947D
S1130BB0BB06882E8618FB2DFF773F2E36FE0DC010
S1130BC0232D2E7FA22E891458F434FE0BC032FC40
S1130BD009C0832D8E7EA82E05C0B82CA32C03C07B
S1130BE0B82C01C0B92CA4FE0FC0FE01E80DF11D04
S1130BF08081803321F49A2D997EA92E09C0A2FE0A
S1130C0006C0B394B39404C08A2D867809F0B394D3
S1130C10A3FC11C0A0FE06C0B21488F4280C922CC8
S1130C209B180EC0B21460F4B60180E290E00E94FA
S1130C307F06B394F7CFB21418F42B1802C0982C83
S1130C40212CA4FE10C0B60180E390E00E947F0630
S1130C50A2FE17C0A1FC03C088E790E002C088E5AB
S1130C6090E0B6010CC08A2D867859F0A1FE02C02E
S1130C708BE201C080E2A7FC8DE2B60190E00E9405
S1130C807F06891438F4B60180E390E00E947F0661
S1130C909A94F7CF8A94F301E80DF11D8081B6018F
S1130CA090E00E947F068110F5CF222009F442CE05
S1130CB0B60180E290E00E947F062A94F6CFF60106
S1130CC08681978102C08FEF9FEF2B96E2E10C940F
S1130CD03507FC010590615070400110D8F78095EC
S1130CE090958E0F9F1F0895FC01615070400190F4
S1130CF00110D8F7809590958E0F9F1F08950F933C
S1130D001F93CF93DF93FB01238121FD03C08FEF5A
S1130D109FEF2CC022FF16C0468157812481358164
S1130D204217530744F4A081B1819D012F5F3F4FC7
S1130D30318320838C93268137812F5F3F4F378304
S1130D40268314C08B01EC01FB010084F185E02DA6
S1130D500995892BE1F6D80116968D919C911797E8
S1130D60019617969C938E931697CE01DF91CF919F
S1130D701F910F910895FA01AA27283051F12031CB
S1130D8081F1E8946F936E7F6E5F7F4F8F4F9F4F1B
S1130D90AF4FB1E03ED0B4E03CD0670F781F891F5D
S1130DA09A1FA11D680F791F8A1F911DA11D6A0F2B
S1130DB0711D811D911DA11D20D009F468943F91DE
S1130DC02AE0269F11243019305D3193DEF6CF01DD
S1130DD00895462F4770405D4193B3E00FD0C9F7A3
S1130DE0F6CF462F4F70405D4A3318F0495D31FD10
S1130DF04052419302D0A9F7EACFB4E0A695979563
S1130E00879577956795BA95C9F700976105710538
S1130E1008959B01AC010A2E069457954795379582
S1130E202795BA95C9F7620F731F841F951FA01DDC
S1130E3008952F923F924F925F926F927F928F927A
S1130E409F92AF92BF92CF92DF92EF92FF920F9355
S1130E501F93CF93DF93CDB7DEB7CA1BDB0B0FB65F
S1130E60F894DEBF0FBECDBF09942A88398848881C
S1130E705F846E847D848C849B84AA84B984C884B2
S1130E80DF80EE80FD800C811B81AA81B981CE0FA9
S1130E90D11D0FB6F894DEBF0FBECDBFED0108958E
S1070EA0F894FFCFF0
S1130EA40040494E4943494F20524945474F0D0A92
S1130EB400524547414E444F2E2E2E0046494E20A3
S1130EC4524945474F0D0A00526965676F00436FE5
S1130ED46D706C657461646F210045737065726133
S1130EE46E646F006E7565766F206469612E2E2EB4
S1130EF400454D455247454E434941210D0A00449E
S1130F044554454E49444F00454D455247454E438B
S1130F14494121006E6F636865005469656D706FA3
S1130F243A2000253264007320004E5545564F2064
S1130F344449410D0A004E7565766F206469612148
S1130F440053697374656D61206C6973746F005325
S1130F54697374656D6120646520726965676F00E7
S1130F644E6F637475726E6F0041540D0A006E6F98
S10B0F746368652E2E2E0000B7
S903044EAA
