:100000000C9434000C9464000C9484000C949700BD
:100010000C9451000C9451000C9451000C9451001C
:100020000C9451000C9451000C9451000C947402E7
:100030000C9451000C9451000C9451000C945100FC
:100040000C94FC020C9451000C9451000C9451003F
:100050000C9451000C9451000C9451000C945300DA
:100060000C9451000C94510011241FBECFEFD8E026
:10007000DEBFCDBF11E0A0E0B1E0E8EBF6E002C0EA
:1000800005900D92A835B107D9F721E0A8E5B1E0B8
:1000900001C01D92A336B207E1F70E94AD010C9496
:1000A0005A030C9400001F920F920FB60F92112466
:1000B0000F900FBE0F901F90189580B7836080BF80
:1000C00080B7886080BF08951F920F920FB60F927D
:1000D00011240F900FBE0F901F901895E9E6F0E0E5
:1000E00080818860808380818B7F80838DB38260F4
:1000F0008DBBE8E6F0E0808181608083EBE6F0E094
:1001000080818460808308951F920F920FB60F92B2
:1001100011248F9382E08093590110926101109213
:1001200060018F910F900FBE0F901F9018951F9236
:100130000F920FB60F9211248F931A9907C083E084
:100140008093590110926101109260018F910F907C
:100150000FBE0F901F9018951092B90084E1809304
:10016000B80084E08093BC00089584EA8093BC00CA
:100170008091BC008823E4F7089584E98093BC0053
:100180008FE99FE00197F1F700C000000895809388
:10019000BB0084EC8093BC008091BC008823E4F712
:1001A00008950E94B50080E70E94C7008FEF0E946B
:1001B000C7002FEF89EF90E0215080409040E1F799
:1001C00000C0000084E30E94C70080E30E94C700D3
:1001D0008FE39CE90197F1F700C0000084E30E94DF
:1001E000C70080E30E94C7008FE99FE00197F1F705
:1001F00000C0000084E30E94C70080E30E94C700A3
:100200008FE99FE00197F1F700C0000084E20E94AF
:10021000C70080E20E94C7008FE99FE00197F1F7D5
:1002200000C000000E94BD000895CF93DF93C82F47
:100230000E94B50080E70E94C700DC2FD07F8D2F81
:100240008C600E94C7008D2F88600E94C70080E1EB
:10025000C89FE00111248C2F8C600E94C7008C2F56
:100260000E94C7000E94BD008FE39FE10197F1F754
:1002700000C000008FE39FE10197F1F700C000008C
:10028000DF91CF9108950E94AC000E94D1008CE2D2
:100290000E9415018CE00E94150186E00E94150164
:1002A00080E80E9415010895CF93DF93C82F0E9424
:1002B000B50080E70E94C700DC2FD07F8D2F8D60B6
:1002C0000E94C7008D2F89600E94C70080E1C89FEF
:1002D000E00111248C2F8D600E94C7008C2F896053
:1002E0000E94C7000E94BD008FE39FE10197F1F7D4
:1002F00000C000008FE39FE10197F1F700C000000C
:10030000DF91CF910895E62FF0E0E150FF4F90810B
:10031000890F81580E941501089581E00E941501FE
:100320008FE39FE10197F1F700C0000008950F935C
:100330001F93CF93DF938C01C0E0D0E003C00E94F5
:1003400054012196F801EC0FFD1F80818111F7CF38
:10035000DF91CF911F910F910895CF93DF93CDB788
:10036000DEB72A970FB6F894DEBF0FBECDBF0E944E
:1003700058020E9443010E946E000E945D000E948C
:10038000600278941FEF00B605FE04C081E0809300
:10039000580102C01092580180915901823069F0D1
:1003A00080915901833049F080915801813019F4CE
:1003B0008093590102C01092590180915901181778
:1003C00009F44CC00E948D0180915901813091F057
:1003D00028F0823001F1833079F13EC061E081E0A4
:1003E0000E94830183E091E00E94970181E0809365
:1003F000020132C061E081E00E9483018DE091E062
:100400000E94970162E081E00E94830185E191E012
:100410000E94970121C061E081E00E94830180E297
:1004200091E00E94970162E081E00E94830188E2EE
:1004300091E00E94970110C061E081E00E94830179
:1004400080E291E00E94970162E081E00E948301D6
:1004500087E391E00E949701109159018091590121
:10046000811191CF80910201882309F48CCF609192
:100470005A0170915B0180915C0190915D012AE0CD
:10048000AE014F5F5F4F0E94190362E081E00E945E
:10049000830186E491E00E94970162E081E00E947E
:1004A0008301CE0101960E949701109202016BCF49
:1004B00080E284B984E085B91AB888E08BB90895E0
:1004C000E1E8F0E0808188608083808183608083C0
:1004D00089EF90E09093890080938800EFE6F0E048
:1004E00080818260808308951F920F920FB60F92D1
:1004F00011242F938F939F93AF93BF9380915901B2
:10050000823021F0809159018330B1F480916001F3
:1005100090916101019690936101809360018091B7
:100520006001909161018838934130F0109261012F
:10053000109260011092590180915E0190915F01CB
:10054000019690935F0180935E010A9708F44AC078
:1005500010925F0110925E0180915901823009F47E
:1005600041C0809159018330E9F180915A01909105
:100570005B01A0915C01B0915D01803A9648A14079
:10058000B105D8F480915A0190915B01A0915C0172
:10059000B0915D010196A11DB11D80935A01909308
:1005A0005B01A0935C01B0935D01809159018111C1
:1005B00019C081E08093020115C080915A01909189
:1005C0005B01A0915C01B0915D01803A9648A14029
:1005D000B10541F410925A0110925B0110925C0136
:1005E00010925D01BF91AF919F918F912F910F90CC
:1005F0000FBE0F901F9018951F920F920FB60F927B
:1006000011248F939F93809162018F5F8093620189
:10061000809162018D3730F095B180E2892785B9EC
:10062000109262019F918F910F900FBE0F901F90BB
:100630001895BB272A3051F4992342F4BDE29095D6
:100640008095709561957F4F8F4F9F4F0C94290334
:10065000BB27FA01A62F6217710581059105330B9F
:1006600030FB66F0AA27660F771F881F991FAA1F05
:10067000A21710F0A21B63953850A9F7A05DAA330A
:1006800008F0A95DA19336F7B111B1931082CA01A8
:100690000C944A03DC01FC01672F71917723E1F789
:1006A000329704C07C916D9370836291AE17BF073F
:0806B000C8F30895F894FFCF90
:1006B800004001434F4E5441444F523A00414C458B
:1006C8005254413A0054454D50203E2032354300A3
:1006D8004556454E544F3A00494E5445525255508E
:1006E80043494F4E203100494E54455252555043CC
:1006F800494F4E203200202020202020202020207A
:08070800202020202020000029
:040000030000016A8E
:00000001FF
