:100000000C9434000C9477000C9451000C94510023
:100010000C9451000C9451000C9451000C9451001C
:100020000C9451000C9451000C9451000C946501F7
:100030000C9451000C9451000C9451000C945100FC
:100040000C9448010C9451000C9451000C945100F4
:100050000C9451000C9451000C9451000C945300DA
:100060000C9451000C94510011241FBECFEFD8E026
:10007000DEBFCDBF11E0A0E0B1E0E4E3F3E002C0F9
:1000800005900D92A030B107D9F721E0A0E0B1E0D2
:1000900001C01D92A130B207E1F70E94B1000C949B
:1000A00098010C9400001F920F920FB60F9211242A
:1000B0002F933F934F935F936F937F938F939F9370
:1000C000AF93BF93EF93FF930E949B00FF91EF913B
:1000D000BF91AF919F918F917F916F915F914F9160
:1000E0003F912F910F900FBE0F901F9018951F9268
:1000F0000F920FB60F9211242F933F934F935F935C
:100100006F937F938F939F93AF93BF93EF93FF93DF
:100110000E949B00FF91EF91BF91AF919F918F91B2
:100120007F916F915F914F913F912F910F900FBEF3
:100130000F901F90189520E030E00FC095B180E23D
:10014000892785B94FEF81EE94E04150804090407F
:10015000E1F700C000002F5F3F4F2431310574F3F9
:1001600008950E9441010E94770184E893E00E9473
:100170008E0184E893E00E9493012FEF83ED90E3DA
:10018000215080409040E1F700C000008CED95E0E8
:100190000E948E012FEF83ED90E32150804090402C
:1001A000E1F700C0000080ED97E00E948E012FEF84
:1001B00083ED90E3215080409040E1F700C00000C3
:1001C0008CED95E00E9493012FEF83ED90E3215099
:1001D00080409040E1F700C0000080ED97E00E9471
:1001E00093012FEF83ED90E3215080409040E1F7A1
:1001F00000C000002FEF83ED90E32150804090403D
:10020000E1F700C000008CED95E00E948E012FEF19
:1002100083ED90E3215080409040E1F700C0000062
:1002200084E893E00E948E012FEF83ED90E321504C
:1002300080409040E1F700C000008CED95E00E9406
:1002400093012FEF83ED90E3215080409040E1F740
:1002500000C0000084E893E00E9493012FEF83ED3B
:1002600090E3215080409040E1F700C000002FEF64
:1002700083ED90E3215080409040E1F700C0000002
:1002800085CF84B1826084B984B1846084B90895D3
:100290001F920F920FB60F9211248F939F9380910C
:1002A00000018F5F80930001809100018D3730F055
:1002B00095B180E2892785B9109200019F918F91B5
:1002C0000F900FBE0F901F9018951F920F920FB6B0
:1002D0000F9211248F939F9395B180E2892785B95E
:1002E0009F918F910F900FBE0F901F90189582EAEB
:1002F000809380008AE1809381008FE39CE9909352
:1003000087008093860080ED97E09093890080932A
:10031000880090938B0080938A00089590938900C1
:1003200080938800089590938B0080938A000895AD
:04033000F894FFCF6F
:00000001FF
